:040000002DEF00F0F0
:1000080006820E0135A10BEF00F00DEF00F021EF95
:1000180000F080A612EF00F016EF00F0016A012A46
:1000280017EF00F0016A01460146014680500118A9
:10003800F70B0118806E0E01359133AB26EF00F0F7
:1000480028EF00F02BEF00F0044A052A339B0692B4
:100058001100DCEF00F002A034EF00F036EF00F002
:1000680039EF00F07F803AEF00F07F9002A23FEF77
:1000780000F041EF00F044EF00F07F8245EF00F020
:100088007F9202A44AEF00F04CEF00F04FEF00F02F
:10009800798450EF00F0799402A655EF00F057EFFD
:1000A80000F05AEF00F07E8C5BEF00F07E9C02A817
:1000B80060EF00F062EF00F065EF00F0798866EF1E
:1000C80000F0799802AA6BEF00F06DEF00F070EF86
:1000D80000F0798A71EF00F0799A02AC76EF00F0BF
:1000E80078EF00F07BEF00F07E807CEF00F07E90F0
:1000F80002AE81EF00F083EF00F086EF00F07A8027
:1001080087EF00F07A90120080868896E3EC00F082
:10011800AFEC00F0C2EC00F09CEC00F004C002F080
:1001280005C003F02FEC00F092EF00F02DEF00F087
:10013800879087928194869C8198819A86908290F4
:1001480082927F907F9279947E9C7998799A7E901A
:100158007A907A921200868E0E01D251F80B03091A
:10016800D26FD351F80B0509D36FD083D089D183CF
:10017800D181D2EC00F00E01D08F1200D6501F0BA7
:100188004009D66ED688D650F00B0809D66ED588A9
:100198000B0ED46EDB0ED36ED58E1200F30E0E014D
:1001A800C617C691C751E00B1B09C76FC68F12004F
:1001B800056A046A06900692000188EF00F0F28A48
:0C01C800F28C0E01298B2B81F28E1200AC
:020000040020DA
:10000000FF0FFF0FFF0FFF0FFF0FFF0FFF0FFF0F80
:020000040030CA
:0C000000AAFFFFFF9FFFFFFFFFFFFFFFB5
:00000001FF
