:040000003DEF00F0E0
:1000080017820E0135A10BEF00F00DEF00F032EF73
:1000180000F080A612EF00F016EF00F00E6A0E2A2C
:1000280017EF00F00E6A0E460E460E4680500E1868
:10003800F70B0E18806E80A624EF00F026EF00F074
:100048002CEF00F009C007F00AC008F030EF00F00C
:1000580009C005F00AC006F00E01359133AB37EF41
:1000680000F039EF00F03BEF00F00D2A339B1792B8
:100078001100ABEF01F080868896FFEC01F0D2EC1E
:1000880001F0E5EC01F0BFEC01F00D04D8A44FEF4E
:1000980000F051EF00F056EF00F00C2A094A0A2A46
:1000A800000E0D6E0C04D8A45CEF00F05EEF00F0BB
:1000B80061EF00F00B2A000E0C6E180E0B18D8A476
:1000C80068EF00F06AEF00F078EF00F0000E0B6EBA
:1000D800000E0A6E000E096E000E066E000E056E0A
:1000E800000E086E000E076E03C00FF004C010F07B
:1000F80001C011F002C012F01650CFEC00F0166EDD
:100108000B5081EC01F005500610D8B48EEF00F0CA
:1001180090EF00F0C6EF00F007500810D8B497EF42
:1001280000F099EF00F0C6EF00F00550075C036E91
:1001380006500858046E045009E1050E035CD8A067
:10014800A8EF00F0AAEF00F0C2EF00F0D89004305A
:10015800156E0330146E145016240B6E000E0C6EC0
:1001680003C001F004C002F0000E066E000E056E1A
:10017800000E086E000E076EC6EF00F001C003F017
:1001880002C004F00BC00FF0106A28EC01F049EF30
:1001980000F03DEF00F0136E0C0E1318D8A4D7EF43
:1001A80000F0D9EF00F0F3EF00F0105009E10B0E6A
:1001B8000F5CD8A0E2EF00F0E4EF00F026EF01F0CA
:1001C800125009E10B0E115CD8A0EDEF00F0EFEF33
:1001D80000F026EF01F00D0E136E26EF01F00D0E64
:1001E8001318D8A4FAEF00F0FCEF00F026EF01F0A6
:1001F8000F501010D8B403EF01F005EF01F026EF0F
:1002080001F0105007E10B0E0F5CD8B00EEF01F0B3
:1002180010EF01F026EF01F011501210D8B417EFCB
:1002280001F019EF01F026EF01F0125007E10B0E73
:10023800115CD8B022EF01F024EF01F026EF01F0B5
:100248000C0E136E135012000FA02DEF01F02FEFBC
:1002580001F032EF01F07F8033EF01F07F900FA2C1
:1002680038EF01F03AEF01F03DEF01F07F823EEF09
:1002780001F07F920FA443EF01F045EF01F048EF42
:1002880001F0798449EF01F079940FA64EEF01F05F
:1002980050EF01F053EF01F07E8C54EF01F07E9C9B
:1002A8000FA859EF01F05BEF01F05EEF01F07988DC
:1002B8005FEF01F079980FAA64EF01F066EF01F0A3
:1002C80069EF01F0798A6AEF01F0799A0FAC6FEF64
:1002D80001F071EF01F074EF01F07E8075EF01F02D
:1002E8007E900FAE7AEF01F07CEF01F07FEF01F026
:1002F8007A8080EF01F07A9012000F6E0F50D8B418
:1003080088EF01F08AEF01F095EF01F0050E0F601C
:1003180090EF01F092EF01F095EF01F08096AAEFCF
:1003280001F0050E0F18D8A49CEF01F09EEF01F024
:10033800AAEF01F00E01D4A1A4EF01F0A6EF01F09D
:10034800A9EF01F08086AAEF01F0809612000C0E4A
:10035800F66E040EF76E000EF86E0900F5CF16F073
:1003680000EE01F00D0EEE6AE806FDE11790179217
:1003780000013FEF00F0879087928194869C8198D6
:10038800819A8690829082927F907F9279947E9CC7
:100398007998799A7E907A907A921200868E0E01D8
:1003A800D251F80B0309D26FD351F80B0509D36F5B
:1003B800D083D089D183D181F5EC01F00E01D08FA3
:1003C8001200D6501F0B4009D66ED688D650F00BB7
:1003D8000809D66ED5880B0ED46EDB0ED36ED58E7B
:1003E8001200F30E0E01C617C691C751E00B1B0988
:1003F800C76FC68F1200F28AF28C0E01298B2B81EF
:05040800F28E12000D50
:020000040020DA
:10000000FF0FFF0FFF0FFF0FFF0FFF0FFF0FFF0F80
:020000040030CA
:0C000000AAFFFFFF9FFFFFFFFFFFFFFFB5
:00000001FF
