:040000003DEF00F0E0
:1000080017820E0135A10BEF00F00DEF00F032EF73
:1000180000F080A612EF00F016EF00F00E6A0E2A2C
:1000280017EF00F00E6A0E460E460E4680500E1868
:10003800F70B0E18806E80A624EF00F026EF00F074
:100048002CEF00F009C007F00AC008F030EF00F00C
:1000580009C005F00AC006F00E01359133AB37EF41
:1000680000F039EF00F03BEF00F00D2A339B1792B8
:100078001100B6EF01F0808688960AEC02F0DDECFC
:1000880001F0F0EC01F0CAEC01F00D04D8A44FEF38
:1000980000F051EF00F056EF00F00C2A094A0A2A46
:1000A800000E0D6E0C04D8A45CEF00F05EEF00F0BB
:1000B80061EF00F00B2A000E0C6E180E0B18D8A476
:1000C80068EF00F06AEF00F078EF00F0000E0B6EBA
:1000D800000E0A6E000E096E000E066E000E056E0A
:1000E800000E086E000E076E03C00FF004C010F07B
:1000F80001C011F002C012F01650DAEC00F0166ED2
:100108000B508CEC01F005500610D8B48EEF00F0BF
:1001180090EF00F0D1EF00F007500810D8B497EF37
:1001280000F099EF00F0D1EF00F00750055C08509F
:100138000658D8B0A2EF00F0A4EF00F0D1EF00F01D
:100148000550075C036E06500858046E045009E118
:10015800050E035CD8A0B3EF00F0B5EF00F0CDEFCB
:1001680000F0D8900430156E0330146E1450162425
:100178000B6E000E0C6E03C001F004C002F0000EFE
:10018800066E000E056E000E086E000E076ED1EFAB
:1001980000F001C003F002C004F00BC00FF0106AB9
:1001A80033EC01F049EF00F03DEF00F0136E0C0E58
:1001B8001318D8A4E2EF00F0E4EF00F0FEEF00F02F
:1001C800105009E10B0E0F5CD8A0EDEF00F0EFEF37
:1001D80000F031EF01F0125009E10B0E115CD8A0CC
:1001E800F8EF00F0FAEF00F031EF01F00D0E136EAA
:1001F80031EF01F00D0E1318D8A405EF01F007EF49
:1002080001F031EF01F00F501010D8B40EEF01F0EB
:1002180010EF01F031EF01F0105007E10B0E0F5C09
:10022800D8B019EF01F01BEF01F031EF01F01150D8
:100238001210D8B422EF01F024EF01F031EF01F0F1
:10024800125007E10B0E115CD8B02DEF01F02FEF23
:1002580001F031EF01F00C0E136E135012000FA0D5
:1002680038EF01F03AEF01F03DEF01F07F803EEF0B
:1002780001F07F900FA243EF01F045EF01F048EF46
:1002880001F07F8249EF01F07F920FA44EEF01F059
:1002980050EF01F053EF01F0798454EF01F07994B5
:1002A8000FA659EF01F05BEF01F05EEF01F07E8CD5
:1002B8005FEF01F07E9C0FA864EF01F066EF01F09C
:1002C80069EF01F079886AEF01F079980FAA6FEF6A
:1002D80001F071EF01F074EF01F0798A75EF01F028
:1002E800799A0FAC7AEF01F07CEF01F07FEF01F023
:1002F8007E8080EF01F07E900FAE85EF01F087EFF2
:1003080001F08AEF01F07A808BEF01F07A90120009
:100318000F6E0F50D8B493EF01F095EF01F0A0EFF6
:1003280001F0050E0F609BEF01F09DEF01F0A0EFCB
:1003380001F08096B5EF01F0050E0F18D8A4A7EFCD
:1003480001F0A9EF01F0B5EF01F00E01D4A1AFEF74
:1003580001F0B1EF01F0B4EF01F08086B5EF01F0E4
:1003680080961200220EF66E040EF76E000EF86EDE
:100378000900F5CF16F000EE01F00D0EEE6AE80662
:10038800FDE11790179200013FEF00F087908792E8
:100398008194869C8198819A8690829082927F909F
:1003A8007F9279947E9C7998799A7E907A907A92C5
:1003B8001200868E0E01D251F80B0309D26FD35169
:1003C800F80B0509D36FD083D089D183D18100EC94
:1003D80002F00E01D08F1200D6501F0B4009D66EC6
:1003E800D688D650F00B0809D66ED5880B0ED46E79
:1003F800DB0ED36ED58E1200F30E0E01C617C69112
:10040800C751E00B1B09C76FC68F1200F28AF28C26
:0B0418000E01298B2B81F28E12000CCC
:020000040020DA
:10000000FF0FFF0FFF0FFF0FFF0FFF0FFF0FFF0F80
:020000040030CA
:0C000000AAFFFFFF9FFFFFFFFFFFFFFFB5
:00000001FF
