:040000003EEF00F0DF
:1000080018820E0135A10BEF00F00DEF00F032EF72
:1000180000F080A612EF00F016EF00F00F6A0F2A2A
:1000280017EF00F00F6A0F460F460F4680500F1863
:10003800F70B0F18806E80A624EF00F026EF00F073
:100048002CEF00F005C009F006C00AF030EF00F010
:1000580005C007F006C008F00E01359133AB37EF45
:1000680000F039EF00F03CEF00F00B4A0C2A339B0C
:100078001892110082EF01F080868896DDEC01F07D
:10008800B0EC01F0C3EC01F09DEC01F00B040C1096
:10009800D8A451EF00F053EF00F05AEF00F00E2A09
:1000A800054A062A000E0C6E000E0B6E0E04D8A42C
:1000B80060EF00F062EF00F065EF00F00D2A000E2F
:1000C8000E6E180E0D18D8A46CEF00F06EEF00F04D
:1000D8007CEF00F0000E0D6E000E066E000E056E31
:1000E800000E086E000E076E000E0A6E000E096EF6
:1000F80016501710D8A483EF00F085EF00F0A3EF97
:1001080000F0045009E10B0E035CD8A08EEF00F05C
:1001180090EF00F0A3EF00F0025009E10B0E015C34
:10012800D8A099EF00F09BEF00F0A3EF00F0000ECD
:10013800176E010E166E000E156E0D0E146E160457
:100148001710D8A4AAEF00F0ACEF00F0CAEF00F047
:10015800045007E10B0E035CD8B0B5EF00F0B7EF21
:1001680000F0CAEF00F0025007E10B0E015CD8B0B6
:10017800C0EF00F0C2EF00F0CAEF00F0000E176EFB
:10018800000E166E000E156E0C0E146E0D50D8B4BF
:10019800D0EF00F0D2EF00F0DDEF00F0050E0D60BB
:1001A800D8EF00F0DAEF00F0DDEF00F08096F2EF24
:1001B80000F0050E0D18D8A4E4EF00F0E6EF00F00B
:1001C800F2EF00F00E01D4A1ECEF00F0EEEF00F03A
:1001D800F1EF00F08086F2EF00F0809607500810EB
:1001E800D8B4F9EF00F0FBEF00F020EF01F0095070
:1001F8000A10D8B402EF01F004EF01F020EF01F08B
:100208000750095C036E08500A58046ED8900430F1
:10021800136E0330126E125014240D6E000E0E6E03
:1002280003C001F004C002F0000E086E000E076E55
:10023800000E0A6E000E096E0DC010F0116A29EC4E
:1002480001F04AEF00F03EEF00F010A02EEF01F0B1
:1002580030EF01F033EF01F07F8034EF01F07F9051
:1002680010A239EF01F03BEF01F03EEF01F07F8281
:100278003FEF01F07F9210A444EF01F046EF01F048
:1002880049EF01F079844AEF01F0799410A64FEF15
:1002980001F051EF01F054EF01F07E8C55EF01F0C1
:1002A8007E9C10A85AEF01F05CEF01F05FEF01F0BF
:1002B800798860EF01F0799810AA65EF01F067EF8F
:1002C80001F06AEF01F0798A6BEF01F0799A10ACCE
:1002D80070EF01F072EF01F075EF01F07E8076EFBC
:1002E80001F07E9010AE7BEF01F07DEF01F080EF22
:1002F80001F07A8081EF01F07A901200C80EF66E54
:10030800030EF76E000EF86E00EE14F010EE04F017
:100318000900F5CFEEFFE550E150FAE100EE01F0FB
:100328000E0EEE6AE806FDE118901892000140EF03
:1003380000F0879087928194869C8198819A869014
:10034800829082927F907F9279947E9C7998799A14
:100358007E907A907A921200868E0E01D251F80B16
:100368000309D26FD351F80B0509D36FD083D08915
:10037800D183D181D3EC01F00E01D08F1200D65079
:100388001F0B4009D66ED688D650F00B0809D66EDA
:10039800D5880B0ED46EDB0ED36ED58E1200F30EFD
:1003A8000E01C617C691C751E00B1B09C76FC68F50
:1003B8001200F28AF28C0E01298B2B81F28E120028
:0403C8000C00010024
:020000040020DA
:10000000FF0FFF0FFF0FFF0FFF0FFF0FFF0FFF0F80
:020000040030CA
:0C000000AAFFFFFF9FFFFFFFFFFFFFFFB5
:00000001FF
