:040000003DEF00F0E0
:1000080017820E0135A10BEF00F00DEF00F032EF73
:1000180000F080A612EF00F016EF00F00E6A0E2A2C
:1000280017EF00F00E6A0E460E460E4680500E1868
:10003800F70B0E18806E80A624EF00F026EF00F074
:100048002CEF00F009C007F00AC008F030EF00F00C
:1000580009C005F00AC006F00E01359133AB37EF41
:1000680000F039EF00F03BEF00F00D2A339B1792B8
:1000780011008FEF01F080868896E3EC01F0B6EC72
:1000880001F0C9EC01F0A3EC01F00D04D8A44FEF86
:1000980000F051EF00F056EF00F00C2A094A0A2A46
:1000A800000E0D6E0C04D8A45CEF00F05EEF00F0BB
:1000B80061EF00F00B2A000E0C6E180E0B18D8A476
:1000C80068EF00F06AEF00F078EF00F0000E0B6EBA
:1000D800000E0A6E000E096E000E066E000E056E0A
:1000E800000E086E000E076E03C00FF004C010F07B
:1000F80001C011F002C012F00C0E23EC01F00B50FD
:1001080065EC01F005500610D8B48DEF00F08FEFC4
:1001180000F0C1EF00F007500810D8B496EF00F0D7
:1001280098EF00F0C1EF00F00550075C036E065031
:100138000858046E045009E1050E035CD8A0A7EF27
:1001480000F0A9EF00F0C1EF00F0D8900430156E70
:100158000330146E14500C0F0B6E000E0C6E000E54
:100168000D6E03C001F004C002F0000E066E000E12
:10017800056E000E086E000E076E0BC00FF0106AB9
:10018800CAEC00F049EF00F03DEF00F00FA0CFEF10
:1001980000F0D1EF00F0D4EF00F07F80D5EF00F051
:1001A8007F900FA2DAEF00F0DCEF00F0DFEF00F055
:1001B8007F82E0EF00F07F920FA4E5EF00F0E7EF19
:1001C80000F0EAEF00F07984EBEF00F079940FA6E5
:1001D800F0EF00F0F2EF00F0F5EF00F07E8CF6EFB4
:1001E80000F07E9C0FA8FBEF00F0FDEF00F000EFA1
:1001F80001F0798801EF01F079980FAA06EF01F074
:1002080008EF01F00BEF01F0798A0CEF01F0799A11
:100218000FAC11EF01F013EF01F016EF01F07E8043
:1002280017EF01F07E900FAE1CEF01F01EEF01F00A
:1002380021EF01F07A8022EF01F07A901200136E1C
:100248000C0E1318D8A42BEF01F02DEF01F045EF99
:1002580001F0105009E10B0E0F5CD8A036EF01F049
:1002680038EF01F064EF01F0125009E10B0E115C58
:10027800D8A041EF01F043EF01F064EF01F064EF23
:1002880001F00D0E1318D8A44CEF01F04EEF01F059
:1002980064EF01F0105007E10B0E0F5CD8B057EF78
:1002A80001F059EF01F064EF01F0125007E10B0E75
:1002B800115CD8B062EF01F064EF01F064EF01F077
:1002C80012000F6E0F50D8B46CEF01F06EEF01F012
:1002D80079EF01F0050E0F6074EF01F076EF01F091
:1002E80079EF01F080968EEF01F0050E0F18D8A473
:1002F80080EF01F082EF01F08EEF01F00E01D4A142
:1003080088EF01F08AEF01F08DEF01F080868EEF23
:1003180001F080961200D40EF66E030EF76E000EF2
:10032800F86E0900F5CF16F000EE01F00D0EEE6A3A
:10033800E806FDE11790179200013FEF00F0879063
:1003480087928194869C8198819A869082908292E5
:100358007F907F9279947E9C7998799A7E907A9012
:100368007A921200868E0E01D251F80B0309D26FD1
:10037800D351F80B0509D36FD083D089D183D181AC
:10038800D9EC01F00E01D08F1200D6501F0B400996
:10039800D66ED688D650F00B0809D66ED5880B0EC7
:1003A800D46EDB0ED36ED58E1200F30E0E01C61777
:1003B800C691C751E00B1B09C76FC68F1200F28A9E
:0D03C800F28C0E01298B2B81F28E12000C9D
:020000040020DA
:10000000FF0FFF0FFF0FFF0FFF0FFF0FFF0FFF0F80
:020000040030CA
:0C000000AAFFFFFF9FFFFFFFFFFFFFFFB5
:00000001FF
