:040000003DEF00F0E0
:1000080017820E0135A10BEF00F00DEF00F032EF73
:1000180000F080A612EF00F016EF00F00E6A0E2A2C
:1000280017EF00F00E6A0E460E460E4680500E1868
:10003800F70B0E18806E80A624EF00F026EF00F074
:100048002CEF00F009C007F00AC008F030EF00F00C
:1000580009C005F00AC006F00E01359133AB37EF41
:1000680000F039EF00F03BEF00F00D2A339B1792B8
:10007800110099EF01F080868896EDEC01F0C0EC54
:1000880001F0D3EC01F0ADEC01F00D04D8A44FEF72
:1000980000F051EF00F056EF00F00C2A094A0A2A46
:1000A800000E0D6E0C04D8A45CEF00F05EEF00F0BB
:1000B80061EF00F00B2A000E0C6E180E0B18D8A476
:1000C80068EF00F06AEF00F078EF00F0000E0B6EBA
:1000D800000E0A6E000E096E000E066E000E056E0A
:1000E800000E086E000E076E03C00FF004C010F07B
:1000F80001C011F002C012F0165028EC01F0166E83
:100108000B506FEC01F005500610D8B48EEF00F0DC
:1001180090EF00F0C6EF00F007500810D8B497EF42
:1001280000F099EF00F0C6EF00F00550075C036E91
:1001380006500858046E045009E1050E035CD8A067
:10014800A8EF00F0AAEF00F0C2EF00F0D89004305A
:10015800156E0330146E145016240B6E000E0C6EC0
:1001680003C001F004C002F0000E066E000E056E1A
:10017800000E086E000E076EC6EF00F001C003F017
:1001880002C004F00BC00FF0106ACFEC00F049EF8A
:1001980000F03DEF00F00FA0D4EF00F0D6EF00F034
:1001A800D9EF00F07F80DAEF00F07F900FA2DFEF49
:1001B80000F0E1EF00F0E4EF00F07F82E5EF00F0FF
:1001C8007F920FA4EAEF00F0ECEF00F0EFEF00F001
:1001D8007984F0EF00F079940FA6F5EF00F0F7EFCF
:1001E80000F0FAEF00F07E8CFBEF00F07E9C0FA889
:1001F80000EF01F002EF01F005EF01F0798806EF5A
:1002080001F079980FAA0BEF01F00DEF01F010EF54
:1002180001F0798A11EF01F0799A0FAC16EF01F02D
:1002280018EF01F01BEF01F07E801CEF01F07E90CB
:100238000FAE21EF01F023EF01F026EF01F07A80F5
:1002480027EF01F07A901200136E0C0E1318D8A441
:1002580030EF01F032EF01F04CEF01F0105009E1FE
:100268000B0E0F5CD8A03BEF01F03DEF01F06DEFF6
:1002780001F0125009E10B0E115CD8A046EF01F015
:1002880048EF01F06DEF01F00D0E136E6DEF01F008
:100298000D0E1318D8A453EF01F055EF01F06DEFD0
:1002A80001F0105007E10B0E0F5CD8B05EEF01F0C3
:1002B80060EF01F06DEF01F0125007E10B0E115CD9
:1002C800D8B069EF01F06BEF01F06DEF01F00C0EA3
:1002D800136E135012000F6E0F50D8B476EF01F062
:1002E80078EF01F083EF01F0050E0F607EEF01F06B
:1002F80080EF01F083EF01F0809698EF01F0050E92
:100308000F18D8A48AEF01F08CEF01F098EF01F0F4
:100318000E01D4A192EF01F094EF01F097EF01F0F4
:10032800808698EF01F080961200E80EF66E030EB4
:10033800F76E000EF86E0900F5CF16F000EE01F02A
:100348000D0EEE6AE806FDE11790179200013FEFE7
:1003580000F0879087928194869C8198819A8690F4
:10036800829082927F907F9279947E9C7998799AF4
:100378007E907A907A921200868E0E01D251F80BF6
:100388000309D26FD351F80B0509D36FD083D089F5
:10039800D183D181E3EC01F00E01D08F1200D65049
:1003A8001F0B4009D66ED688D650F00B0809D66EBA
:1003B800D5880B0ED46EDB0ED36ED58E1200F30EDD
:1003C8000E01C617C691C751E00B1B09C76FC68F30
:1003D8001200F28AF28C0E01298B2B81F28E120008
:0103E8000C08
:020000040020DA
:10000000FF0FFF0FFF0FFF0FFF0FFF0FFF0FFF0F80
:020000040030CA
:0C000000AAFFFFFF9FFFFFFFFFFFFFFFB5
:00000001FF
