:040000002DEF00F0F0
:100008000C820E0135A10BEF00F00DEF00F021EF8F
:1000180000F080A612EF00F016EF00F0096A092A36
:1000280017EF00F0096A0946094609468050091881
:10003800F70B0918806E0E01359133AB26EF00F0EF
:1000480028EF00F02BEF00F0074A082A339B0C92A8
:1000580011002BEF01F08086889640EC01F008EC47
:1000680001F01BEC01F0F5EC00F007040810D8A42F
:1000780040EF00F042EF00F048EF00F0054A062A92
:10008800000E086E000E076E05040610D8A44FEF88
:1000980000F051EF00F057EF00F0034A042A000E79
:1000A800066E000E056E180E03180410D8A45FEF34
:1000B80000F061EF00F067EF00F0014A022A000E3D
:1000C800046E000E036E03500410D8B46EEF00F0F7
:1000D80070EF00F07CEF00F0045007E1050E035CC0
:1000E800D8B079EF00F07BEF00F07CEF00F080965D
:1000F800050E03180410D8A484EF00F086EF00F072
:1001080092EF00F00E01D4A18CEF00F08EEF00F01A
:1001180091EF00F0808692EF00F0809603C00AF01D
:1001280004C00BF09CEC00F039EF00F02DEF00F06C
:100138000AA0A1EF00F0A3EF00F0A6EF00F07F8087
:10014800A7EF00F07F900AA2ACEF00F0AEEF00F04E
:10015800B1EF00F07F82B2EF00F07F920AA4B7EF10
:1001680000F0B9EF00F0BCEF00F07984BDEF00F0CB
:1001780079940AA6C2EF00F0C4EF00F0C7EF00F0D0
:100188007E8CC8EF00F07E9C0AA8CDEF00F0CFEF80
:1001980000F0D2EF00F07988D3EF00F079980AAA3E
:1001A800D8EF00F0DAEF00F0DDEF00F0798ADEEF4B
:1001B80000F0799A0AACE3EF00F0E5EF00F0E8EF21
:1001C80000F07E80E9EF00F07E900AAEEEEF00F0DE
:1001D800F0EF00F0F3EF00F07A80F4EF00F07A909F
:1001E8001200879087928194869C8198819A869044
:1001F800829082927F907F9279947E9C7998799A66
:100208007E907A907A921200868E0E01D251F80B67
:100218000309D26FD351F80B0509D36FD083D08966
:10022800D183D18136EC01F00E01D08F1200D65067
:100238001F0B4009D66ED688D650F00B0809D66E2B
:10024800D5880B0ED46EDB0ED36ED58E120000EE61
:1002580001F0080EEE6AE806FDE10C900C92000130
:100268002FEF00F0F30E0E01C617C691C751E00B31
:100278001B09C76FC68F1200F28AF28C0E01298BF8
:060288002B81F28E120032
:020000040020DA
:10000000FF0FFF0FFF0FFF0FFF0FFF0FFF0FFF0F80
:020000040030CA
:0C000000AAFFFFFF9FFFFFFFFFFFFFFFB5
:00000001FF
