:040000003DEF00F0E0
:1000080014820E0135A10BEF00F00DEF00F032EF76
:1000180000F080A612EF00F016EF00F00E6A0E2A2C
:1000280017EF00F00E6A0E460E460E4680500E1868
:10003800F70B0E18806E80A624EF00F026EF00F074
:100048002CEF00F009C007F00AC008F030EF00F00C
:1000580009C005F00AC006F00E01359133AB37EF41
:1000680000F039EF00F03BEF00F00D2A339B1492BB
:10007800110074EF01F080868896C8EC01F09BECC3
:1000880001F0AEEC01F088EC01F00D04D8A44FEFBC
:1000980000F051EF00F056EF00F00C2A094A0A2A46
:1000A800000E0D6E0C04D8A45CEF00F05EEF00F0BB
:1000B80061EF00F00B2A000E0C6E180E0B18D8A476
:1000C80068EF00F06AEF00F078EF00F0000E0B6EBA
:1000D800000E0A6E000E096E000E066E000E056E0A
:1000E800000E086E000E076E0C0E1318D8A47FEFD2
:1000F80000F081EF00F099EF00F0045009E10B0ED9
:10010800035CD8A08AEF00F08CEF00F099EF00F0C4
:10011800025009E10B0E015CD8A095EF00F097EFB3
:1001280000F099EF00F00D0E136E0D0E1318D8A401
:10013800A0EF00F0A2EF00F0BAEF00F0045007E1E2
:100148000B0E035CD8B0ABEF00F0ADEF00F0BAEFE8
:1001580000F0025007E10B0E015CD8B0B6EF00F0DA
:10016800B8EF00F0BAEF00F00C0E136E0B50D8B4D5
:10017800C0EF00F0C2EF00F0CDEF00F0050E0B600D
:10018800C8EF00F0CAEF00F0CDEF00F08096E2EF84
:1001980000F0050E0B18D8A4D4EF00F0D6EF00F04D
:1001A800E2EF00F00E01D4A1DCEF00F0DEEF00F08A
:1001B800E1EF00F08086E2EF00F08096055006102F
:1001C800D8B4E9EF00F0EBEF00F012EF01F00750C0
:1001D8000810D8B4F2EF00F0F4EF00F012EF01F0DD
:1001E8000550075C036E06500858046E000E0D6E2D
:1001F800D8900430126E0330116E115013240B6E18
:10020800000E0C6E03C001F004C002F0000E066E72
:10021800000E056E000E086E000E076E0BC00FF084
:10022800106A1BEC01F049EF00F03DEF00F00FA061
:1002380020EF01F022EF01F025EF01F07F8026EF9B
:1002480001F07F900FA22BEF01F02DEF01F030EFBE
:1002580001F07F8231EF01F07F920FA436EF01F0B9
:1002680038EF01F03BEF01F079843CEF01F079942D
:100278000FA641EF01F043EF01F046EF01F07E8C4D
:1002880047EF01F07E9C0FA84CEF01F04EEF01F014
:1002980051EF01F0798852EF01F079980FAA57EFE2
:1002A80001F059EF01F05CEF01F0798A5DEF01F0A0
:1002B800799A0FAC62EF01F064EF01F067EF01F09B
:1002C8007E8068EF01F07E900FAE6DEF01F06FEF6A
:1002D80001F072EF01F07A8073EF01F07A9012006A
:1002E8009E0EF66E030EF76E000EF86E0900F5CF3F
:1002F80013F000EE01F00D0EEE6AE806FDE1149031
:10030800149200013FEF00F0879087928194869CB9
:100318008198819A8690829082927F907F92799438
:100328007E9C7998799A7E907A907A921200868E3D
:100338000E01D251F80B0309D26FD351F80B0509FE
:10034800D36FD083D089D183D181BEEC01F00E0167
:10035800D08F1200D6501F0B4009D66ED688D650C3
:10036800F00B0809D66ED5880B0ED46EDB0ED36E53
:10037800D58E1200F30E0E01C617C691C751E00BB9
:100388001B09C76FC68F1200F28AF28C0E01298BE7
:070398002B81F28E12000C14
:020000040020DA
:10000000FF0FFF0FFF0FFF0FFF0FFF0FFF0FFF0F80
:020000040030CA
:0C000000AAFFFFFF9FFFFFFFFFFFFFFFB5
:00000001FF
