:040000006CEF00F0B1
:1000080017820E0135A10BEF00F00DEF00F032EF73
:1000180000F080A612EF00F016EF00F0016A012A46
:1000280017EF00F0016A01460146014680500118A9
:10003800F70B0118806E80A624EF00F026EF00F081
:100048002CEF00F012C010F013C011F030EF00F0E8
:1000580012C00EF013C00FF00E01359133AB37EF1D
:1000680000F039EF00F06AEF00F0162A1604D8A461
:1000780040EF00F042EF00F047EF00F0152A124A77
:10008800132A000E166E1504D8A44DEF00F04FEF9A
:1000980000F052EF00F0142A000E156E180E141816
:1000A800D8A459EF00F05BEF00F069EF00F0000E04
:1000B800146E000E136E000E126E000E0F6E000E00
:1000C8000E6E000E116E000E106E339B179211000B
:1000D800F8EF01F0808688960DEC02F0D5EC01F07F
:1000E800E8EC01F0C2EC01F00C0E0B6E000E0D6E88
:1000F800000E0C6E000E0A6E000E096E0CC002F0A7
:100108000DC003F009C004F00AC005F00B50E6EC7E
:1001180000F00B6E145098EC01F00E500F10D8B48C
:1001280098EF00F09AEF00F0DDEF00F0105011109A
:10013800D8B4A1EF00F0A3EF00F0DDEF00F010500D
:100148000E5C11500F58D8B0ACEF00F0AEEF00F0D5
:10015800DDEF00F00E50105C0C6E0F5011580D6E54
:100168000D5009E1050E0C5CD8A0BDEF00F0BFEF03
:1001780000F0D9EF00F0D8900D30086E0C30076E03
:1001880007500B24146E000E156E000E166E0CC070
:1001980009F00DC00AF0000E0F6E000E0E6E000E74
:1001A800116E000E106EDDEF00F009C00CF00AC0F1
:1001B8000DF014C002F0036A3FEC01F082EF00F08A
:1001C8006CEF00F0066E0C0E0618D8A4EEEF00F0E7
:1001D800F0EF00F00AEF01F0035009E10B0E025CAA
:1001E800D8A0F9EF00F0FBEF00F03DEF01F005506B
:1001F80009E10B0E045CD8A004EF01F006EF01F052
:100208003DEF01F00D0E066E3DEF01F00D0E0618E4
:10021800D8A411EF01F013EF01F03DEF01F0025007
:100228000310D8B41AEF01F01CEF01F03DEF01F014
:10023800035007E10B0E025CD8B025EF01F027EF61
:1002480001F03DEF01F004500510D8B42EEF01F095
:1002580030EF01F03DEF01F0055007E10B0E045CB3
:10026800D8B039EF01F03BEF01F03DEF01F00C0E93
:10027800066E0650120002A044EF01F046EF01F0AE
:1002880049EF01F07F804AEF01F07F9002A24FEF23
:1002980001F051EF01F054EF01F07F8255EF01F0CA
:1002A8007F9202A45AEF01F05CEF01F05FEF01F0DA
:1002B800798460EF01F0799402A665EF01F067EFA9
:1002C80001F06AEF01F07E8C6BEF01F07E9C02A8D2
:1002D80070EF01F072EF01F075EF01F0798876EFB9
:1002E80001F0799802AA7BEF01F07DEF01F080EF31
:1002F80001F0798A81EF01F0799A02AC86EF01F07A
:1003080088EF01F08BEF01F07E808CEF01F07E909A
:1003180002AE91EF01F093EF01F096EF01F07A80D1
:1003280097EF01F07A901200026E0250D8B49FEF56
:1003380001F0A1EF01F0ACEF01F0050E0260A7EFAC
:1003480001F0A9EF01F0ACEF01F08096C1EF01F0E8
:10035800050E0218D8A4B3EF01F0B5EF01F0C1EF14
:1003680001F00E01D4A1BBEF01F0BDEF01F0C0EF29
:1003780001F08086C1EF01F0809612008790879285
:100388008194869C8198819A8690829082927F90AF
:100398007F9279947E9C7998799A7E907A907A92D5
:1003A8001200868E0E01D251F80B0309D26FD35179
:1003B800F80B0509D36FD083D089D183D18103ECA1
:1003C80002F00E01D08F1200D6501F0B4009D66ED6
:1003D800D688D650F00B0809D66ED5880B0ED46E89
:1003E800DB0ED36ED58E120000EE0EF0090EEE6A0B
:1003F800E806FDE11790179200016EEF00F0F30E8A
:100408000E01C617C691C751E00B1B09C76FC68FEF
:100418001200F28AF28C0E01298B2B81F28E1200C7
:020000040020DA
:10000000FF0FFF0FFF0FFF0FFF0FFF0FFF0FFF0F80
:020000040030CA
:0C000000AAFFFFFF9FFFFFFFFFFFFFFFB5
:00000001FF
