:040000003EEF00F0DF
:1000080012820E0135A10BEF00F00DEF00F032EF78
:1000180000F080A612EF00F016EF00F00B6A0B2A32
:1000280017EF00F00B6A0B460B460B4680500B1877
:10003800F70B0B18806E80A624EF00F026EF00F077
:100048002CEF00F001C005F002C006F030EF00F020
:1000580001C003F002C004F00E01359133AB37EF55
:1000680000F039EF00F03CEF00F0074A082A339B14
:100078001292110066EF01F0808688967BEC01F001
:1000880043EC01F056EC01F030EC01F007040810E5
:10009800D8A451EF00F053EF00F05AEF00F00A2A0D
:1000A800014A022A000E086E000E076E0A04D8A440
:1000B80060EF00F062EF00F065EF00F0092A000E33
:1000C8000A6E180E0918D8A46CEF00F06EEF00F055
:1000D8007CEF00F0000E096E000E026E000E016E3D
:1000E800000E046E000E036E000E066E000E056E06
:1000F8000950D8B482EF00F084EF00F08FEF00F0E1
:10010800050E09608AEF00F08CEF00F08FEF00F029
:100118008096A4EF00F0050E0918D8A496EF00F019
:1001280098EF00F0A4EF00F00E01D4A19EEF00F0CC
:10013800A0EF00F0A3EF00F08086A4EF00F0809617
:1001480003500410D8B4ABEF00F0ADEF00F0CEEFE1
:1001580000F005500610D8B4B4EF00F0B6EF00F088
:10016800CEEF00F00350055C0E6E045006580F6E7B
:10017800D8900F30116E0E30106E10500C0F096EA3
:10018800000E0A6E000E046E000E036E000E066E60
:10019800000E056E09C00CF00D6AD7EC00F04AEFAE
:1001A80000F03EEF00F00CA0DCEF00F0DEEF00F016
:1001B800E1EF00F07F80E2EF00F07F900CA2E7EF24
:1001C80000F0E9EF00F0ECEF00F07F82EDEF00F0D7
:1001D8007F920CA4F2EF00F0F4EF00F0F7EF00F0DC
:1001E8007984F8EF00F079940CA6FDEF00F0FFEFAA
:1001F80000F002EF01F07E8C03EF01F07E9C0CA86A
:1002080008EF01F00AEF01F00DEF01F079880EEF29
:1002180001F079980CAA13EF01F015EF01F018EF2F
:1002280001F0798A19EF01F0799A0CAC1EEF01F010
:1002380020EF01F023EF01F07E8024EF01F07E90A3
:100248000CAE29EF01F02BEF01F02EEF01F07A80D0
:100258002FEF01F07A901200879087928194869C04
:100268008198819A8690829082927F907F927994E9
:100278007E9C7998799A7E907A907A921200868EEE
:100288000E01D251F80B0309D26FD351F80B0509AF
:10029800D36FD083D089D183D18171EC01F00E0165
:1002A800D08F1200D6501F0B4009D66ED688D65074
:1002B800F00B0809D66ED5880B0ED46EDB0ED36E04
:1002C800D58E120000EE01F00A0EEE6AE806FDE196
:1002D80012901292000140EF00F0F30E0E01C617C3
:1002E800C691C751E00B1B09C76FC68F1200F28A6F
:0C02F800F28C0E01298B2B81F28E12007B
:020000040020DA
:10000000FF0FFF0FFF0FFF0FFF0FFF0FFF0FFF0F80
:020000040030CA
:0C000000AAFFFFFF9FFFFFFFFFFFFFFFB5
:00000001FF
