:040000002DEF00F0F0
:100008000C820E0135A10BEF00F00DEF00F021EF8F
:1000180000F080A612EF00F016EF00F0016A012A46
:1000280017EF00F0016A01460146014680500118A9
:10003800F70B0118806E0E01359133AB26EF00F0F7
:1000480028EF00F02BEF00F00A4A0B2A339B0C92A2
:10005800110016EF01F002A034EF00F036EF00F0C7
:1000680039EF00F07F803AEF00F07F9002A23FEF77
:1000780000F041EF00F044EF00F07F8245EF00F020
:100088007F9202A44AEF00F04CEF00F04FEF00F02F
:10009800798450EF00F0799402A655EF00F057EFFD
:1000A80000F05AEF00F07E8C5BEF00F07E9C02A817
:1000B80060EF00F062EF00F065EF00F0798866EF1E
:1000C80000F0799802AA6BEF00F06DEF00F070EF86
:1000D80000F0798A71EF00F0799A02AC76EF00F0BF
:1000E80078EF00F07BEF00F07E807CEF00F07E90F0
:1000F80002AE81EF00F083EF00F086EF00F07A8027
:1001080087EF00F07A901200808688961DEC01F047
:10011800E9EC00F0FCEC00F0D6EC00F0000E076E05
:10012800000E066E000E096E000E086E000E056EBB
:10013800000E046E0A040B10D8A4A5EF00F0A7EF78
:1001480000F0ADEF00F0064A072A000E0B6E000E15
:100158000A6E06040710D8A4B4EF00F0B6EF00F05A
:10016800BCEF00F0084A092A000E076E000E066E62
:10017800180E08180910D8A4C4EF00F0C6EF00F054
:10018800CCEF00F0044A052A000E096E000E086E36
:1001980008C002F009C003F02FEC00F09EEF00F059
:1001A8002DEF00F0879087928194869C8198819AA0
:1001B8008690829082927F907F9279947E9C7998A3
:1001C800799A7E907A907A921200868E0E01D25198
:1001D800F80B0309D26FD351F80B0509D36FD083FD
:1001E800D089D183D1810CEC01F00E01D08F12009F
:1001F800D6501F0B4009D66ED688D650F00B08098A
:10020800D66ED5880B0ED46EDB0ED36ED58E12004B
:10021800F30E0E01C617C691C751E00B1B09C76F35
:10022800C68F12000B6A0A6A0C900C92000188EFC4
:1002380000F0F28AF28C0E01298B2B81F28E1200CB
:020000040020DA
:10000000FF0FFF0FFF0FFF0FFF0FFF0FFF0FFF0F80
:020000040030CA
:0C000000AAFFFFFF9FFFFFFFFFFFFFFFB5
:00000001FF
